:020000040000FA
:100000000C9407040C942F040C942F040C942F04CC
:100010000C942F040C942F040C942F040C942F0494
:100020000C942F040C942F040C942F040C942F0484
:100030000C942F040C94992B0C942F040C942F04E3
:100040000C946B180C942F040C942F040C942F0414
:100050000C942F040C942F040C942F040C942F0454
:100060000C942F040C942F04536B697020424C4B5A
:100070003A3241203F00545358437A7870554546F0
:100080005357203F004D6F746F72204374726C2081
:100090003F00426175642052617465203F005665DF
:1000A0007273696F6E2E2E2E00000000000000009B
:1000B000000000000000000000000000FF00000041
:1000C00000000000330000000000003F00003F007F
:1000D0000000000000000000000030FF3030FF3062
:1000E0000000033F03033F03000030CCFFCC0C00B3
:1000F00000000C0C3F0C030000003C3C00C0300C26
:100100000000300C03003C3C00003CC3C33C00003A
:1001100000000F3030330C33000000003F000000BF
:1001200000000000000000000000F00C03000000D0
:100130000000030C3000000000000000030CF00081
:1001400000000000300C030000000C30FF300C00F9
:1001500000000C033F030C000000C0C0FCC0C00046
:10016000000000000F000000000000000000000080
:1001700000000000300F00000000C0C0C0C0C0C0C0
:10018000000000000000000000000000000000006F
:1001900000000000300000000000000000C0300C33
:1001A0000000300C030000000000FC03C3C333FC5C
:1001B00000000F333030300F000000000CFF000053
:1001C00000000000303F300000000C03C3C3C33CFC
:1001D00000003C333030303000000303C3C3F30F62
:1001E00000000C303030300F000000C0300CFF0039
:1001F0000000030303033F0300003F33333333C3E3
:1002000000000C303030300F0000F0CCC3C3C3030B
:1002100000000F303030300F0000030303C3330FF2
:10022000000000003F00000000003CC3C3C3C33C0B
:1002300000000F303030300F00003CC3C3C3C3FC9C
:100240000000303030300C030000000030000000AF
:10025000000000000300000000000000003000006B
:1002600000000000100F0000000000C0300C030070
:1002700000000000030C300000003030303030301F
:100280000000030303030303000000030C30C0005D
:10029000000000300C03000000000C030000000010
:1002A00000000000000000000000FC03C333C3FC9A
:1002B00000000F30303333300000F00C03030CF03B
:1002C00000003F030303033F0000FFC3C3C3C33C5D
:1002D00000003F303030300F0000FC030303030CFC
:1002E00000000F303030300C0000FF03030303FC2C
:1002F00000003F303030300F0000FFC3C3C3C303E2
:1003000000003F30303030300000FFC3C3C3C303B0
:1003100000003F00000000000000FC030383838313
:1003200000000F303031313F0000FFC0C0C0C0FFBF
:1003300000003F000000003F00000003FF0300003A
:10034000000000303F30000000000000000000FF0F
:1003500000000C303030300F0000FFC0C0300C0304
:1003600000003F0000030C300000FF000000000010
:1003700000003F30303030300000FF0CF0F00CFF58
:1003800000003F000000003F0000FF0CF0C000FF35
:1003900000003F0000030C3F0000FC03030303FCCC
:1003A00000000F303030300F0000FFC3C3C3C33C28
:1003B00000003F00000000000000FC03030303FCFA
:1003C00000000F3030330C330000FFC3C3C3C33C05
:1003D00000003F0000030C3000003CC3C3C3C30C4B
:1003E00000000C303030300F00000303FF03030027
:1003F000000000003F0000000000FF00000000FFC0
:1004000000000F303030300F0000FF00000000FF10
:100410000000030C30300C030000FF00C0C000FFE0
:1004200000003F0C03030C3F00000F30C0C0300F32
:1004300000003C030000033C00000F30C0300F0000
:10044000000000003F00000000000303C3C3330F9F
:1004500000003C33303030300000FFFF0303030363
:1004600000003F3F3030303000000C30C000000052
:100470000000000000030C30000003030303FFFF33
:100480000000303030303F3F000000C030C000007E
:100490000000030000000300000000000000000056
:1004A0000000303030303030000000030C300000ED
:1004B000000000000000000000000030303030C0BC
:1004C00000000C333333333F0000FF30303030C096
:1004D00000003F303030300F0000C030303030305E
:1004E00000000F30303030300000C030303030FF8E
:1004F00000000F303030303F0000C030303030C0AE
:1005000000000F33333333330000C0FCC3C3C30CCC
:100510000000003F000000000000C030303030C05C
:10052000000003CCCCCCCC3F0000FF30303030C0DA
:1005300000003F000000003F00000030F30000001A
:10054000000000303F300000000000303030F30089
:10055000000030C0C0C03F000000FF000000C030FD
:1005600000003F0303030C3000000003FF00000005
:10057000000000303F3000000000F030C0C030F01C
:1005800000003F000F0F003F0000F030303030C05F
:1005900000003F000000003F0000C030303030C09D
:1005A00000000F303030300F0000F030303030C0FD
:1005B0000000FF0C0C0C0C030000C030303030F099
:1005C0000000030C0C0C0CFF0000F0C03030303089
:1005D00000003F00000000000000C030303030302C
:1005E000000030333333330C00003030FF30300044
:1005F000000000000F30300C0000F000000000F0A0
:1006000000000F3030300C3F0000F000000000F020
:100610000000030C30300C030000F000000000F07C
:1006200000003F300F0F303F000030C00000C030EE
:100630000000300C03030C300000F000000000F05C
:10064000000003CCCCCCCC3F000030303030F03058
:100650000000303C333330300000C0C0FC3F0303A7
:10066000000000000F3F303000000000FF000000DD
:10067000000000003F000000000003033FFCC0C07A
:10068000000030303F0F00000000C030C000F0001C
:10069000000003000003000000206279746573000D
:1006A0004D61784475696E6F204F544C41005B4535
:1006B0004D5054595D0053746F7070656400200094
:1006C0003031323334353637383941424344454688
:1006D0004E6F742056616C69642046696C65005ADF
:1006E0005854617065210000035A584159454D55D1
:1006F0004C20201A0B00C000806E554546204669EC
:100700006C6521545A584455494E4F9D504155539C
:1007100045442A20004F4E202A006F6666202A009A
:1007200052657365742E2E004E6F20534420436132
:100730007264001FA6DEBACC137D74202A00B004B8
:1007400060094E0C100E0A0F332E30312E31303925
:10075000352E653963666264009E009200850076DE
:100760000068004D656E750063647400636173001A
:10077000756566006179006F0070007461700050EB
:100780006C6179696E6700504C4159696E67200051
:1007900050415553454420200000506C6179696EEA
:1007A0006720202020202000506175736564202080
:1007B00000000000002300260029000000000800BF
:1007C0000201000003040700000000000000000018
:1007D000000000250028002B000000000024002756
:1007E000002A0004040404040404040202020202B5
:1007F00002030303030303010204081020408001E5
:10080000020408102001020408102000C22B112449
:100810001FBECFEFD8E0DEBFCDBF11E0A0E0B1E05A
:10082000EAEDFFE602C005900D92A835B107D9F7B1
:1008300027E0A8E5B1E001C01D92A237B207E1F7B9
:1008400014E0C7E0D4E004C02197FE010E94B43751
:10085000C630D107C9F70E94DD2B0C94EB370C94FE
:10086000000090E0FC01E950F84F24918D51984F21
:10087000FC018491882399F090E0880F991FFC0176
:10088000E752F84FA591B491FC01E153F84F8591DF
:1008900094918FB7F894EC91E22BEC938FBF08956D
:1008A000833081F028F4813099F08230A9F00895E6
:1008B0008730A9F08830C9F08430B1F4809180008D
:1008C0008F7D03C0809180008F7780938000089592
:1008D00084B58F7784BD089584B58F7DFBCF8091DB
:1008E000B0008F778093B00008958091B0008F7D25
:1008F000F9CFCF93DF93282F30E0F901E554F84F7B
:100900008491F901E950F84FD491F901ED51F84F74
:10091000C491CC23A1F081110E945004EC2FF0E08F
:10092000EE0FFF1FEF54F84FA591B491EC91ED231A
:1009300081E090E009F480E0DF91CF91089580E0BC
:1009400090E0FACF1F93CF93DF93282F30E0F90187
:10095000E554F84F8491F901E950F84FD491F90129
:10096000ED51F84FC491CC23A9F0162F81110E94AC
:100970005004EC2FF0E0EE0FFF1FE153F84FA5916C
:10098000B4918FB7F894EC91111108C0D095DE2383
:10099000DC938FBFDF91CF911F910895DE2BF8CFAD
:1009A0003FB7F8948091080490910904A0910A043B
:1009B000B0910B0426B5A89B05C02F3F19F00196F6
:1009C000A11DB11D3FBFBA2FA92F982F8827BC01A9
:1009D000CD01620F711D811D911D42E0660F771FD1
:1009E000881F991F4A95D1F708958F929F92AF92D1
:1009F000BF92CF92DF92EF92FF924B015C010E9477
:100A0000D0046B017C010E94D0046C197D098E0911
:100A10009F09683E734081059105A8F321E0821A81
:100A20009108A108B10888EEC80E83E0D81EE11C29
:100A3000F11C81149104A104B10429F7FF90EF90F7
:100A4000DF90CF90BF90AF909F908F9008952FB779
:100A5000F8946091040470910504809106049091CB
:100A600007042FBF089581E10E94790421E0892BBA
:100A700009F020E0822F089587E00E94790421E0A8
:100A8000892B09F020E0822F089580E10E947904EB
:100A900021E0892B09F020E0822F08958FE00E9449
:100AA000790421E0892B09F020E0822F08958EE05F
:100AB0000E94790421E0892B09F020E0822F08951B
:100AC0008F929F92AF92BF92EF92FF921F93CF931C
:100AD000DF93EC0189819A817E0127E0E20EF11C0F
:100AE0004B815C816D817E81DC01ED91FC91028006
:100AF000F381E02D97010995182F81110CC010E0AA
:100B0000812FDF91CF911F91FF90EF90BF90AF9019
:100B10009F908F900895888181FD04C088818E7F89
:100B20008883EECF89819A814B815C816D817E8142
:100B3000FC0184849584A684B784480D591D6A1DE0
:100B40007B1D0190F081E02D0280F381E02D970163
:100B500009958111E3CFD3CFCF92DF92EF92FF922D
:100B60001F93CF93DF93EC016A017B01122F8B81DE
:100B70009C81AD81BE818C159D05AE05BF05D1F070
:100B8000888180FD1EC012FD10C089819A81DC0120
:100B9000ED91FC910190F081E02D9E01295F3F4F86
:100BA000B701A6010995882389F01882CB82DC82DF
:100BB000ED82FE8213708881182B1883CE01079670
:100BC00007C0CE010E9460058111DDCF90E080E07A
:100BD000DF91CF911F91FF90EF90DF90CF9008951C
:100BE0008F929F92AF92BF92CF92DF92EF92FF923D
:100BF0000F931F931092280541E050E060E070E0F1
:100C000040932B0550932C0560932D0570932E0572
:100C100023E235E0309345052093440510924305C7
:100C20004FEF5FEFBA01409346055093470560933D
:100C3000480570934905882309F450C020E040E03E
:100C400050E0BA0183E495E00E94AC05009761F49E
:100C500080E01F910F91FF90EF90DF90CF90BF90B9
:100C6000AF909F908F900895FC01E254FE4F208139
:100C70002F7771F78A539E4FFC01C080D180E280AC
:100C8000F380C114D104E104F10411F320E0B701B1
:100C9000A60183E495E00E94AC05FC01892BC1F21A
:100CA000838594858115924099F68089823081F6FA
:100CB00086859785892B61F22585209325058FEF01
:100CC000820F8093260580E091E0291769F08F5FFD
:100CD000893041F488E080932705BACFC12CD12C0C
:100CE0007601D4CF990FF1CF809327054689578994
:100CF00070E060E04115510521F444A155A166A1C1
:100D000077A140932F055093300560933105709380
:100D100032052685378546015701820E931EA11C98
:100D2000B11C8092370590923805A0923905B09297
:100D30003A052189328930932A0520932905440FE9
:100D4000551F661F771F480D591D6A1D7B1D409357
:100D50003F055093400560934105709342052189FA
:100D60003289A5E0220F331FAA95E1F721503E4FAB
:100D7000232F33272695420F531F611D711D40936A
:100D80003305509334056093350570933605038918
:100D9000148930E020E00115110521F400A111A112
:100DA00022A133A1C41AD50AE60AF70AC00ED11E41
:100DB000E21EF31E04C0F694E794D794C7948A9574
:100DC000D2F7D701C6010196A11DB11D80933B0545
:100DD00090933C05A0933D05B0933E0585EFC81662
:100DE0008FE0D806E104F10420F48CE0809328051C
:100DF0002FCF80E125EFC2162FEFD206E104F104D8
:100E000068F084A595A5A6A5B7A580933F05909306
:100E10004005A0934105B093420580E280932805E8
:100E200081E017CF8F929F92AF92BF92CF92DF92C5
:100E3000EF92FF920F931F936A017B0148015901C2
:100E4000FC012581203299F5048915892689378985
:100E5000E7E07695679557954795EA95D1F7400F66
:100E6000511F621F731F23E080960E94AC050097FC
:100E700061F480E01F910F91FF90EF90DF90CF9091
:100E8000BF90AF909F908F900895E894C7F8DD24AD
:100E9000EE24FF24CC0CDD1CCC0CDD1C8C0D9D1D28
:100EA000FC0180829182A282B38281E0E3CF203173
:100EB00001F744895589668977894D0D511D611D5A
:100EC000711D23E080960E94AC05009791F2DD240D
:100ED000EE24FF24CC0CDD1CC80ED91EF6011183B4
:100EE0000083E3CFCF92DF92EF92FF920F931F9395
:100EF000CF93DF93EC016A017B0189018D81803200
:100F000009F041C08C899D89AE89BF89E7E076955B
:100F1000679557954795EA95D1F7480F591F6A1F6E
:100F20007B1F22E0CE0180960E94AC05009751F411
:100F30008FEFDF91CF911F910F91FF90EF90DF9096
:100F4000CF900895E894C7F8DD24EE24FF24CC0C5C
:100F5000DD1CCC0CDD1C8C0D9D1DFC018081918164
:100F6000A281B381BF70488D598D6A8D7B8D4817E2
:100F700059076A077B0728F1F80180839183A283D0
:100F8000B38381E0D6CF803199F64C895D896E8933
:100F90007F894D0D511D611D711D22E0CE0180968E
:100FA0000E94AC05009721F2DD24EE24FF24CC0C36
:100FB000DD1CC80ED91EF60180819181B0E0A0E051
:100FC000D2CF80E0B6CFFC019C01255F3F4F80E08F
:100FD00080FB879587F99191890F2E173F07C1F7FD
:100FE00008954F925F926F927F928F929F92AF92ED
:100FF000BF92CF92DF92EF92FF920F931F93CF9306
:10100000DF93EC014A015B014C845D846E847F8434
:10101000A881AA2309F491C081149104A104B10408
:10102000D1F41C861D861E861F86888A998AAA8A04
:10103000BB8A81E0DF91CF911F910F91FF90EF90DC
:10104000DF90CF90BF90AF909F908F907F906F90E8
:101050005F904F900895A3FF5DC0488D598D6A8DB4
:101060007B8D481559056A057B0508F466C04889DB
:1010700059896A897B89EE81FF81848190E0099694
:101080008A019B010150110921093109082E04C070
:1010900036952795179507950A94D2F7750164013F
:1010A000B1E0CB1AD108E108F10804C0F694E79446
:1010B000D794C7948A95D2F7C016D106E206F306F4
:1010C00028F0452B462B472B09F042C0A6FF3BC01A
:1010D000848D958DA68DB78D8C879D87AE87BF87B4
:1010E0008E01045F1F4FC114D104E104F10409F41F
:1010F0009CCF4C855D856E857F8598018E819F8113
:101100000E94720791E0C91AD108E108F108181687
:1011100054F313C0A5FFABCFEE81FF818681978189
:1011200025E0880F991F2A95E1F7B0E0A0E0881527
:101130009905AA05BB0508F078CF4C865D866E86BA
:101140007F8680E077CF8C8D9D8DAE8DBF8DC4CF97
:10115000C01AD10AE20AF30AC3CFCF93DF93EC019E
:101160008881811105C081E01882DF91CF910895B7
:101170008A8187FF39C04C895D896E897F898E811C
:101180009F8121E080960E94AC05009729F4898117
:101190008160898380E0E8CFEC81FD81EF70FF27DB
:1011A00025E0EE0FFF1F2A95E1F7E80FF91F3097B2
:1011B00071F38081853E59F3888183FF08C0888D53
:1011C000998DAA8DBB8D848F958FA68FB78F8C8DAF
:1011D0009D8D938F828F8C8D9D8DAE8DBF8DB58BA8
:1011E000A48B8A818F778A838E819F81FC0120A1C5
:1011F00020FFB9CF80960E946005882341F2B3CFCB
:101200008EBD0DB407FEFDCF08958FEF8EBD0DB4DA
:1012100007FEFDCF8EB5089590E022E0281748F430
:10122000973038F4220F32E0953008F431E0930F14
:10123000F5CF892F806A86958CBD909591709DBD64
:10124000089561E0FC0182810E94A2048FEF0C945A
:101250000009BF92CF92DF92EF92FF920F931F93FC
:10126000CF93DF938C01C62FD22FD32EC42EB52E51
:10127000FC0184810E940C0960E0F80182810E94D7
:10128000A2040E9427057B010E9405098F3F39F0C7
:101290000E9427056E197F0968357240A8F38C2FCC
:1012A00080640E9400098B2D0E9400098C2D0E94F1
:1012B00000098D2D0E9400098D2F0E94000987E8EA
:1012C000C11101C085E90E940009CC3011F40E94CF
:1012D0000509C0E00E940509F801858387FF04C065
:1012E000CF3F11F0CF5FF6CFDF91CF911F910F91DC
:1012F000FF90EF90DF90CF90BF90089580EA90E04C
:1013000090930B0180930A0120910C0130910D0103
:10131000203B84E0380731F088E790E090930B01A0
:1013200080930A0180918C03813091F4203B3440FA
:1013300061F482EA95E090930B0180930A01809119
:101340008C03815080938C03089584EF91E0F3CF58
:101350008111F5CF8091910393E187FF99E09093FC
:101360008C03880F809391038091E00381508093D8
:10137000E00310920B0110920A01E1CF80917903F2
:1013800090917A039C012150310930937A03209384
:101390007903892B21F486E08093120108958091CE
:1013A00077039091780390930B0180930A0108953D
:1013B0000F931F93E0910601F0910701409176038E
:1013C000242F30E0D9011196AE0FBF1F8C912E0F44
:1013D0003F1FD9016C919091DB0391110FC1762FC2
:1013E000682F9B0177FF55C075FF1AC07F7590E08D
:1013F00080E030918B0321E0311120E020938B03BA
:1014000020918B0321110AC02998209176032E5F29
:101410002E3F08F0DDC02093760389C0299AF5CFCE
:101420003F7781E080937503809174038111B2C08E
:1014300081E040918B0391E0411190E090938B0308
:1014400090918B039111ADC02998909175039923C8
:1014500009F4B3C0882309F4A6C090917603809163
:101460009B0380938B0321503109409106015091D9
:101470000701892F90E0FA01E80FF91F30830196E8
:10148000840F951FDC012C936CED75E080E090E0FB
:101490004EC076FF7DC075FF23C07F71CB01B0E0E9
:1014A000A0E08093700390937103A0937203B093B4
:1014B00073034E5F4E3F08F055C040937603809112
:1014C0000601909107014091760350E0FA013196B0
:1014D000E80FF91F2081840F951FFC018081382FB0
:1014E0006091700370917103809172039091730306
:1014F00027FF4AC041E040938B03299AA901442762
:101500005770452B09F481CFE0910601F091070156
:1015100050917603452F50E0DF01A40FB51F3150E5
:101520003C934F5F5F4FE40FF51F220F20838B0129
:101530009C0153E0000F111F221F331F5A95D1F752
:1015400001151105B1E02B07310508F05CC081E001
:1015500010938700009386008061809381001F9123
:101560000F910895109276038091080190910901DE
:101570009093070180930601F0930901E09308011D
:1015800081E0809397039BCF10928B032998B6CF6D
:10159000672BC9F080917503882309F44ACF80E056
:1015A0004FCF299A52CFA8EEB3E00E94263710926F
:1015B000750321E02093740328CF10927403B901BE
:1015C00090E080E022CF68EE73E080E090E01DCFF5
:1015D0001092760320910601309107014091080195
:1015E000509109015093070140930601309309017E
:1015F0002093080121E02093970399CF60E573ECD5
:1016000080E090E094CF01151105E8E02E07310548
:1016100028F48B019C013F7182E09ACF01151105DE
:10162000F0E42F07310548F446E0369527951795E5
:1016300007954A95D1F783E08BCF01151105210558
:1016400041E0340730F4012F122F232F332784E099
:101650007FCF01151105210584E0380748F48AE0A1
:1016600036952795179507958A95D1F785E070CF20
:1016700085E00FEF1FEF6CCF10928B03299810922B
:10168000740310927503089580910C0190910D01DF
:101690008E342CE0920721F158F4803B24E092072D
:1016A00099F080369940B9F080E1809381000895E7
:1016B00080312EE09207C9F08A309F40A9F782E07E
:1016C00080938D0381E404C081E080938D0380EDDD
:1016D0008093C203E9CF81E080938D0388E6F8CF41
:1016E00081E080938D0380E5F3CF82E080938D03CA
:1016F00086E4EECF2091D0032093E00390E02B30DE
:1017000019F4880F991F9A5F90938F0380938E032B
:1017100008950E94570581110EC00E944E05811147
:101720000AC00E943305811106C00E94450581113F
:1017300002C010920E0162E370E080E090E00C9431
:10174000F5040F931F93CF938C01C4E0F801099522
:10175000882341F062E370E080E090E00E94F504AD
:10176000C150A1F7CF911F910F910895CF93DF93AF
:10177000EC01FE010995882339F062E370E080E016
:1017800090E00E94F504F5CFDF91CF910895F89491
:1017900090E080E0FC01EC58FE4F1082E250FF4FD9
:1017A000108201968E3F9105A9F778940895B0E0D4
:1017B000A0E0BC01CD0122E0660F771F881F991FB2
:1017C0002A95D1F7695F7F4F8F4F9F4F95958795EA
:1017D0007795679527E030E040E050E00E94DA36E8
:1017E000C9010895EF92FF920F931F93CF93DF9358
:1017F000EC0189017C0189EBE81A8DEFF80AFE0102
:10180000E35BFD4F8081833039F089E0440F551F41
:10181000661F771F8A95D1F79A01AB0168E1C7016E
:101820000E942909882349F0C65BDD4F86E0888342
:10183000C7010E94210980E026C08EEF0E940009A6
:10184000F80180818EBD818132961E5F0DB407FE46
:10185000FDCF8EBDE017F10711F08191F7CF0DB4E8
:1018600007FEFDCF8FEF0E9400098FEF0E94000955
:101870000E940509F70185838F71853059F4C701EE
:101880000E94210981E0DF91CF911F910F91FF907C
:10189000EF900895C65BDD4F83E18883C7010E9406
:1018A0002109C6CFCF92DF92EF92FF920F931F9341
:1018B000CF93DF93EC0169018C01095B1D4FFC01A3
:1018C000E35BFD4F8081833039F089E0440F551F81
:1018D000661F771F8A95D1F79A01AB0161E1C801B4
:1018E0000E942909882389F0C65BDD4F84E0888344
:1018F000C8010E94210980E0DF91CF911F910F91D3
:10190000FF90EF90DF90CF9008950E9427057B0114
:101910000E940509F80185838F3F59F40E9427052D
:101920006E197F096D32714098F3C65BDD4F81E11E
:10193000DECF8E3F21F0C65BDD4F8FE0D8CF8FEF3B
:101940008EBDF601D601A150BE4F9FEF0DB407FE2C
:10195000FDCF8EB59EBD8193AE17BF07B9F70DB40D
:1019600007FEFDCF8EB58C93F80115820E94050904
:101970000E940509C8010E94210981E0BDCF40E015
:1019800050E0BA010C94F1070E9427056854744F87
:101990008F4F9F4F6093AE047093AF048093B00459
:1019A0009093B10410920C040895CF92DF92EF92BD
:1019B000FF920F931F93CF93DF93FC0180E2DF012F
:1019C0001D928A95E9F7EB01AE81BF81B783A683AB
:1019D00055834483CC8CDD8CEE8CFF8CC086D18605
:1019E000E286F3864F705527ED01A79695E0440FE8
:1019F000551F9A95E1F7BE01640F751FEB018B85AA
:101A000083FD49C0CD01840F951FEC018AA9877120
:101A10008083EB019B85987111F488608083238318
:101A200081E0828393960D911D912D913C91969723
:101A3000048B158B268B378BA40FB51FDB964D912E
:101A40005C91DC9770E060E0BA0155274427ED0116
:101A5000CF5BDF4F0881198130E020E0402B512B14
:101A6000622B732B448F558F668F778FAD5BBF4F83
:101A70008D919D910D90BC91A02D808F918FA28F03
:101A8000B38F81E0DF91CF911F910F91FF90EF9085
:101A9000DF90CF900895108280E0F4CFFC01808128
:101AA00081110FC080E2DF01982F1D929A95E9F70E
:101AB00077836683DB0115969C91903129F09032F3
:101AC00011F080E0089580E4808381E082830895AE
:101AD0002F923F924F925F926F927F928F929F923E
:101AE000AF92BF92CF92DF92EF92FF920F931F932C
:101AF000CF93DF9300D000D0CDB7DEB79C838B832C
:101B00005B018A01DC018C91882309F4E6C01296FE
:101B10009C91129790FFE1C083FF1AC058968D9157
:101B20009D910D90BC91A02DEB81FC814089518944
:101B300062897389841B950BA60BB70BA80170E013
:101B400060E0481759076A077B07C8F08C0117C087
:101B500085FF15C0AB81BC811696ED91FC9117975E
:101B60008681978155E0880F991F5A95E1F7509625
:101B70002D913C91821B930B8017910738F37801CC
:101B8000EB81FC813C96FA83E983612C42E0742E60
:101B9000E114F10409F4D4C0EB81FC8180899189BE
:101BA000A289B3894C01F1E09F22EB81FC81208165
:101BB00046805780AC01BD0139E076956795579511
:101BC00047953A95D1F7F20125FF30C0848D958D68
:101BD000A68DB78D480F591F6A1F7B1FEB81FC81B3
:101BE000868197818114910409F082C0E114F2E0AA
:101BF000FF0608F47DC0DC0193962D903D904D903A
:101C00005C909697421553056405750509F470C0FC
:101C1000ED91FC910190F081E02D950109958823CB
:101C200009F45BC0C12C82E0D82E77C0D380D422C7
:101C30008114910491F4D11010C0892B8A2B8B2B25
:101C4000B1F526FF31C0848D958DA68DB78DEB81C2
:101C5000FC8184879587A687B787AB81BC81169660
:101C6000ED91FC9117971C964D915D916D917C9132
:101C70001F974250510961097109848104C0440FC2
:101C8000551F661F771F8A95D2F780899189A2898F
:101C9000B389840F951FA61FB71FAC01BD014D0D61
:101CA000511D611D711D9ACFEB81FC81CCCFAB81A1
:101CB000BC811C964D915D916D917C911F972981FE
:101CC0003A81C2010E94720787FD07C08111C5CF0A
:101CD000EB81FC818081807799F5AB81BC81119685
:101CE0008C911197826011968C938FEF9FEF2BC090
:101CF00093012819390967012E153F0508F4690178
:101D000020E080960E94AC05009739F3BC01680D75
:101D1000791DA601C5010E94C737AC0CBD1CEB8123
:101D2000FC8180899189A289B3898C0D9D1DA11D9B
:101D3000B11D808B918BA28BB38BEC18FD0828CF43
:101D4000C8018E199F090F900F900F900F90DF918F
:101D5000CF911F910F91FF90EF90DF90CF90BF90A8
:101D6000AF909F908F907F906F905F904F903F903B
:101D70002F900895EF92FF920F931F93CF93DF93CD
:101D80001F92CDB7DEB77C01962FF70140895189AC
:101D9000628973898A019B0185E03695279517959D
:101DA00007958A95D1F70F7011F091112BC041E082
:101DB00050E0BE016F5F7F4FC7010E94680D813008
:101DC00051F090E080E00F90DF91CF911F910F9143
:101DD000FF90EF900895F70180899189A289B389D6
:101DE0004F96A11DB11D808B918BA28BB38BF701F8
:101DF000868197818796F0E20F9F90011124820FD0
:101E0000931FE1CF405E5F4F6F4F7F4F408B518BF1
:101E1000628B738BECCFCF92DF92EF92FF920F9396
:101E20001F93CF93DF93FC018081811159C0DB01A7
:101E30009C91907709F454C07A01EB016F01411530
:101E4000510509F447C04150510970E060E085E058
:101E5000440F551F661F771F8A95D1F7CD010E9449
:101E6000F1078823E9F160E0CE010E94BA0EFC017F
:101E7000892BB1F183858F3081F580818F7181301D
:101E800061F505851E2DB5E1EB16F10408F014E1AE
:101E900060E0CE010E94BA0E009711F1FC01208192
:101EA000253EF1F02223E1F02E32D1F0112321F072
:101EB0000E94E307801314C0212FA701BE01C601B1
:101EC000DF91CF911F910F91FF90EF90DF90CF9016
:101ED0000C94D50CCB010E94BF0C10E000E0D8CFD1
:101EE00080E0DF91CF911F910F91FF90EF90DF90F5
:101EF000CF9008952F923F924F925F926F927F9270
:101F00008F929F92AF92BF92CF92DF92EF92FF9209
:101F10000F931F93CF93DF9300D01F92CDB7DEB7FF
:101F20007C017B836A83FA01DB018C91807709F461
:101F3000E0C0D7018C918111DCC0C180D28080814A
:101F4000837088248394882349F0C6010C966DE041
:101F500070E00E94A03788248394860E8F018A81C6
:101F60009B810E94BF0C1982212C312C912C58018D
:101F7000B6E0AB0EB11CEA81FB81408851886288D3
:101F8000738861E0CF010E94BA0E009709F4B1C0D6
:101F9000DC012C91253E09F4A6C0222309F4C0C01F
:101FA000381470F12E3251F1FC0133853F3009F0C5
:101FB0005DC0911027C026FFDECF2F71922EF585D0
:101FC000F983222EE22DE150FF0BAF01FDE0F49FDB
:101FD0009001F59F300D11242C153D0578F4FC017E
:101FE000712C64E06715B0F081819281C216D3062E
:101FF000D1F4892B19F4BFCF253EA1F6912CBBCF8C
:10200000312CD0CF2A942211F9CF2585B9812B17F5
:10201000C9F2F4CF8AE0871518F084819581E6CF64
:1020200086819781E3CF8F3F910509F038F74FEB19
:10203000480F4A3108F4805EB9016F5F7F4FD801C5
:1020400013964D915C91240F351FD9019C912FEB74
:10205000290F2A3108F4905E9813D0CF73943296EA
:10206000BDE07B1609F487CF9B01BBCF33FDC6CF04
:10207000992061F1E1E02E123CC00E94E307F98152
:10208000F81337C0B301A20185E07695679557959F
:1020900047958A95D1F7292D6A817B81C7010F90D9
:1020A0000F900F90DF91CF911F910F91FF90EF90C4
:1020B000DF90CF90BF90AF909F908F907F906F9068
:1020C0005F904F903F902F900C94D50C4BE050E0D8
:1020D000B5010E94BA37892B09F04DCFD8018C91F8
:1020E00080FD49CFCFCF381408F088CF3394211129
:1020F00083CF80E00F900F900F90DF91CF911F91D1
:102100000F91FF90EF90DF90CF90BF90AF909F9096
:102110008F907F906F905F904F903F902F90089599
:10212000381420F3E6CF2F923F924F925F926F9236
:102130007F928F929F92BF92CF92DF92EF92FF9207
:102140000F931F93CF93DF93CDB7DEB7E1970FB611
:10215000F894DEBF0FBECDBF8091130190911401A2
:102160000E94AD080091130110911401A091890300
:10217000B0918A0319821A82F8018081811111C0FD
:102180008C91807771F0E1E2F1E07F0181918F32F3
:10219000E1F316966D917C9181111BC0C8010E94DC
:1021A0004E0DE1960FB6F894DEBF0FBECDBFDF91A6
:1021B000CF911F910F91FF90EF90DF90CF90BF9044
:1021C0009F908F907F906F905F904F903F902F9057
:1021D0000895CE0101960E944E0D882311F36E01E1
:1021E000F2E3CF0ED11C80E2B82EF7019F012F5FE2
:1021F0003F4F8081803209F48EC0FDA3ECA39F0184
:10220000A9014E1B5F0B7901D9018D919D01882396
:1022100071F08F3209F081C0CF01840F951F7C01CE
:10222000DC012D91CD012032D1F32F32C1F3DA013F
:10223000AE0FBF1FAD014E1B5F0BAE17BF0709F4FA
:1022400086C08E918E32B1F38032A1F34F3F51059B
:1022500011F00CF0A6CF5BA34AA3DE019796BD92C6
:10226000AC15BD05E1F7DF01CD018E1B9F0B2D9154
:102270002E32D1F32032C1F388248394009709F0E1
:10228000812C9A0121503109DF01A40FB51F2F3F86
:10229000320709F05FC09EA0612CA7E07A2E312C96
:1022A000512CB8E04B2E841795070CF088C0DF0145
:1022B000A80FB91F6C91603209F47FC06E3221F40F
:1022C0008217930709F079C0A62F6232A1F06C370C
:1022D00091F0B6EDB60FB63010F46D3261F4B6EC95
:1022E000B60FB63040F0B5EAB60FB33020F0BFED10
:1022F000B60FBE35B0F18217930709F0A3C06AE0AC
:10230000761609F4A9C0C9016AE0762E78E0372E66
:10231000A0E14A2E41C0F90169CF8C3509F441CFC3
:10232000982F977F923209F43CCF8A3309F439CF42
:10233000982F9F7B9C3309F434CF92EC980F923006
:1023400008F42FCF80528F3508F45ACF2ACF50E0AF
:1023500040E081CF6E916E3209F49DCF215031095A
:1023600096CF8217930759F2731408F46EC0BFE931
:10237000B60FBA31B0F46052642822242394230C9F
:10238000A7E2B0E0AC0FBD1FA30DB11D6C93A6E09A
:10239000322CA21508F0922C019685CF812C6FE586
:1023A000AFE5A154AA3148F75428E7CFC901BAE0F4
:1023B0007B2E68E0362E70E1472E812CEDCF9EA259
:1023C0008FA1803209F4EDCE882009F1562011F05A
:1023D00082E0682E69A2F7018081AE014F5D5F4FF8
:1023E000BE016F5F7F4F882349F1C8010E947A0FB9
:1023F000882309F4D6CE80E2F801DE01119601901F
:102400000D928A95E1F7C8010E94AD08EECE81E0F9
:1024100089A3892D90E067E270E06C0F7D1F680F43
:10242000791F2EE7FB01208328E230E02C0F3D1FAF
:10243000820F931F21E3DC012C93CDCFC8010E94B2
:102440007A0FAFCE731408F0A9CFAAE07A1621F064
:10245000281739070CF0AACF9EA2812CB1CF6F921A
:102460007F928F929F92AF92BF92CF92DF92EF9224
:10247000FF920F931F93CF93DF93CDB7DEB7A09753
:102480000FB6F894DEBF0FBECDBFFC0119821A82D1
:102490009081992309F40BC18F01838181116EC052
:1024A0009076E9F08FE280930D0410920E04FF24E1
:1024B000F3948F2DA0960FB6F894DEBF0FBECDBF5C
:1024C000DF91CF911F910F91FF90EF90DF90CF9010
:1024D000BF90AF909F908F907F906F9008954489A8
:1024E0005589668977898681978120E080960E9448
:1024F000AC05009709F4DDC0F801A481B581AF7087
:10250000BB2735E0AA0FBB1F3A95E1F7A80FB91F0B
:10251000109709F4CEC09D0168E010E080E07EE2F3
:10252000F90191919F01903201F1883041F4412FDE
:1025300050E0435F5B4FFA0170831F5F60E1A901C8
:1025400041505109FA0190814FEB490F4A3130F463
:102550001C964C911C97462309F0905E412F50E049
:10256000435F5B4FFA0190831F5F8F5F8B30C1F633
:10257000E12FF0E0E35FFB4F108299CF80859185DA
:10258000A285B385668177819E012F5F3F4F490108
:102590000097A105B10509F070C0C9010E944E0D58
:1025A000882309F484C09DE0A92E94E0B92ECC24A0
:1025B000C394D12CD80113968C9113978C1508F4E1
:1025C00076C014964D915C914C195D0970E060E005
:1025D00085E0440F551F661F771F8A95D1F7C40108
:1025E0000E94F107F82E882309F461C060E0C4015D
:1025F0000E94BA0EFC01892B09F459C083858F30E3
:1026000009F055C080818F71C81251C095012D50BD
:1026100034403F01A50160E0D3016530F0F511962B
:102620008D919C91009799F0203A3105D0F48F3725
:10263000910510F08FE390E02F5F3F4FDA018D930B
:10264000AD016F5FB2E06B0E711C6D3029F7203A5F
:10265000310538F4808186FF04C0235F3B4FD901E8
:102660001C921092AC04BDE0AB0EB11C2FEFC21A4D
:10267000D20A808186FF9ECF1CCF2CE1F4011192FB
:102680002A95E9F720E1298321E02B8378876F835E
:102690008D8F9E8FAF8FB8A386CF6B3020F41496AA
:1026A0008D919C91BFCF16968D919C91BBCF10922E
:1026B0000D04F12CFECECF92DF92EF92FF920F939A
:1026C0001F93CF93DF9380911301909114010E9487
:1026D000BF0C109299031092980381E08093E60357
:1026E0008091C30481116CC00091130110911401F9
:1026F000F8018081807709F463C080899189A2897B
:10270000B3898F719927AA27BB27892B8A2B8B2BFB
:1027100009F056C0C0E0D0E0F801C088D188E28856
:10272000F38860E0C8010E94BA0E009709F448C01F
:10273000FC012081222309F443C02E32B9F1253E49
:10274000A9F1338533FD34C0CC2321F00E94E30787
:102750008D1336C0B701A60135E07695679557957C
:1027600047953A95D1F72C2FB80183EC94E00E945D
:10277000D50C882329F1E0911301F091140180898F
:102780009189A289B38925E0B695A79597958795F4
:102790002A95D1F70197909399038093980310920B
:1027A000E60383EC94E00E94AD089ACFC0E0B4CF7A
:1027B0003F30E1F726FFB0CFC22FCF71D585ACCF28
:1027C00080911301909114010E94BF0C1092E303B9
:1027D0001092E203DF91CF911F910F91FF90EF9044
:1027E000DF90CF900895CF93C82F83EC94E00E94A0
:1027F000F107882351F04C2F50E065EC73E083EC37
:1028000094E00E94680DCF91089580E0FCCF409144
:10281000DC035091DD036091DE037091DF0384E0FF
:102820000E94F313843081F58091DC039091DD03E5
:10283000A091DE03B091DF030496A11DB11D80932A
:10284000DC039093DD03A093DE03B093DF0380915C
:10285000C7039091C803B0E0A0E0DC019927882766
:102860004091C5035091C60370E060E0842B952B26
:10287000A62BB72B8093850390938603A0938703A1
:10288000B093880381E0089580E008954091DC03CF
:102890005091DD036091DE037091DF0383E00E94BD
:1028A000F313833051F58091DC039091DD03A09107
:1028B000DE03B091DF030396A11DB11D8093DC03FD
:1028C0009093DD03A093DE03B093DF038091C603F2
:1028D0009091C703B0E0A0E0BA2FA92F982F8827C6
:1028E0002091C503822B8093850390938603A09348
:1028F0008703B093880381E0089580E008954091B4
:10290000DC035091DD036091DE037091DF0382E010
:102910000E94F3138230E9F48091DC039091DD038F
:10292000A091DE03B091DF030296A11DB11D80933B
:10293000DC039093DD03A093DE03B093DF0380916B
:10294000C5039091C603909386038093850381E02D
:10295000089580E008954091DC035091DD0360917B
:10296000DE037091DF0381E00E94F3138130C9F42C
:102970004091DC035091DD036091DE037091DF0331
:102980004F5F5F4F6F4F7F4F4093DC035093DD03EA
:102990006093DE037093DF039091C50390938503EA
:1029A000089580E008958091E00381110DC00E9498
:1029B000AB14882359F0809185038093910389E0BB
:1029C0008093E00310928C030C947E0981E0809345
:1029D000D30388EE93E0909384038093830380E88D
:1029E0008093CF0308958091E003811137C00E9446
:1029F000AB14882309F44AC0809185038093910326
:102A00008091920390919303A0919403B0919503C8
:102A10000197A109B1098093920390939303A09326
:102A20009403B093950310928203892B8A2B8B2BEE
:102A300081F481E0809390038091800390918103E1
:102A4000892B21F487E08093120103C085E08093F5
:102A5000D8038BE08093E00310928C038091E00315
:102A6000823039F480917F03811103C081E080932B
:102A7000E0038091E00340917D0350917E038B3011
:102A800039F450930B0140930A0113C086E0DBCF69
:102A90008230E1F590917F0391702091820392172B
:102AA00091F120917B0390917C0320930A019093F4
:102AB0000B0190918C039F5F90938C0320911101E7
:102AC00060910A0170910B016417750779F59213F3
:102AD0003EC09EEF980F993038F42091910330E07A
:102AE000359527952093910381508093E0031092B0
:102AF0008C0390919003992351F1811128C086E0B5
:102B0000809312010895242F952FCFCF813049F45F
:102B100020917B0330917C0330930B0120930A01B9
:102B2000C8CF9091910390FDF3CFABCF30E0220F4F
:102B3000331F9217130659F49EEF980F9930A0F6A1
:102B40009091820321E0922790938203C6CF08954B
:102B50009091E00320910C0130910D0180918C0344
:102B60009B3009F081C02136394008F0A5C0882388
:102B700009F488C0813031F420EA31E030930B0150
:102B800020930A018F5F80938C0320910A0130917A
:102B90000B01203D310521F02C33310509F094C0A3
:102BA0002DEF290F2830A0F4823091F48091820318
:102BB00021E08227809382032091910330E03595B4
:102BC00027952093910391509093E00310928C03EA
:102BD0008091E003813041F480918C03863021F4B0
:102BE0001092E00310928C038091E003823011F088
:102BF0008B3049F490918C03923029F4815080936A
:102C0000E00310928C038091E003811172C08091E7
:102C10009003882309F46DC08FEF90E0A0E0B0E04E
:102C20008093D4039093D503A093D603B093D70396
:102C30000E94AB14882309F459C08091DC03909161
:102C4000DD03A091DE03B091DF030197A109B10973
:102C50008093DC039093DD03A093DE03B093DF0346
:102C600085E08093D80308959230D9F42136394015
:102C700060F4882339F0813009F084CF20918203F9
:102C800021117ACF20ED30E079CF882339F08130DF
:102C900009F078CF20918203211113C02CE330E09A
:102CA0006DCF913021F42136394060F3F7CF409158
:102CB000910340FF58CFF7CF882381F3813009F08B
:102CC00061CF26ED31E05ACF823009F09CCF8DEFF5
:102CD000890F883038F42091910330E0359527959D
:102CE0002093910391509093E0038BCF82E08093E7
:102CF000120108950E94AB142091C403882309F4A3
:102D000095C0809185038093910380919203909167
:102D10009303A0919403B0919503243109F053C01B
:102D20002FEF2093910325E12093C4034091DC030E
:102D30005091DD036091DE037091DF034150510932
:102D4000610971094093DC035093DD036093DE0356
:102D50007093DF030296A11DB11D8093920390939F
:102D60009303A0939403B093950380918203909171
:102D7000910389278093820380919203909193031A
:102D8000A0919403B0919503892B8A2B8B2B09F08A
:102D900069C010928C038091DC039091DD03A091B7
:102DA000DE03B091DF030197A109B1098093DC0331
:102DB0009093DD03A093DE03B093DF0385E080935F
:102DC000D80380E00895AC01BD014150510961096B
:102DD000710940939203509393036093940370930B
:102DE00095032091CF03283F09F0BFCF20916701C1
:102DF0002111BBCF209110012093910321E020935A
:102E000067014091DC035091DD036091DE03709116
:102E1000DF0341505109610971094093DC0350936C
:102E2000DD036093DE037093DF0397CF253159F5FF
:102E300080918203809391038091920390919303F8
:102E4000A0919403B09195030196A11DB11D8093AB
:102E5000920390939303A0939403B093950386E118
:102E60008093C4038091920390919303A091940363
:102E7000B09195030197A105B10549F088E08093D1
:102E8000E00381E0089581E08093D30397CF8091A0
:102E90000501F5CF0E947A16811105C010920B0131
:102EA00010920A0108958091E0038150990B982FA8
:102EB0008827905C20919103820F911D90930B01C4
:102EC00080930A0108958091E003811106C00E9459
:102ED0007A16882319F110928C0380919103209126
:102EE0007B0330917C0387FD04C020917D033091EA
:102EF0007E0330930B0120930A0190918C039F5F16
:102F000090938C03923051F4880F809391038091B9
:102F1000E00381508093E00310928C030895809128
:102F2000D803833081F128F4813049F0823009F1EF
:102F30000895843091F1853009F4AAC008958091F4
:102F4000790390917A039C012150310930937A03DF
:102F500020937903892B21F482E08093D80308958C
:102F6000809177039091780390930B0180930A01ED
:102F70000895809172019091730190930B01809359
:102F80000A0183E0EACF80917001909171019093E2
:102F90000B0180930A0184E0E0CF8091CF038B3F47
:102FA00009F074C02091C403243108F06FC08091EF
:102FB000E00381113CC040918203233139F44093F6
:102FC000910384E18093C40385E0C7CF31E0320FE1
:102FD0003093C403832F90E0FC01EA51F94FE49150
:102FE000E093910322502A3008F047C003972DE068
:102FF00034E0F90101900020E9F79F012E503440A0
:1030000082179307C0F5835F9B4FFC01808190EE90
:10301000980F903670F580939103809191038427E7
:103020008093820388E08093E00310928C03809168
:10303000910320917B0330917C0387FD04C0209194
:103040007D0330917E0330930B0120930A01909110
:103050008C039F5F90938C039230A1F5880F80932F
:1030600091038091E00381508093E00310928C03E0
:1030700008958FE3D0CF80E2CECF809163013D30C1
:1030800051F23E3051F680916401C5CF0C94631724
:103090002091CF0380918003909181032E3F99F07E
:1030A000283F89F02B3F79F090938403809383032A
:1030B00080E88093CF038091D303882319F08FEFAA
:1030C0008093CF030895906890930B0180930A0139
:1030D0001092D803F0CF1F920F920FB60F921124C7
:1030E0002F933F938F939F93AF93BF93809104044B
:1030F00090910504A0910604B09107043091030457
:1031000023E0230F2D3758F50196A11DB11D209303
:1031100003048093040490930504A0930604B093E1
:1031200007048091080490910904A0910A04B091C9
:103130000B040196A11DB11D80930804909309040E
:10314000A0930A04B0930B04BF91AF919F918F910C
:103150003F912F910F900FBE0F901F90189526E86A
:10316000230F0296A11DB11DD2CF71E03D9A3C986C
:103170000000000000000E94942B3D980E94942BB8
:10318000A894000000000000359B0E948E2BD2F016
:10319000889434990894771F48F73D9A803019F045
:1031A0003C980C94D4183C9A0000000000000E9447
:1031B000942B3D98A89400000000359B0E948E2B14
:1031C0000E94942B000000003D9A872F99270895B4
:1031D00080E208950894881F0C94EF18880FF1F08E
:1031E0003D9A00000000000020F400003C980C9480
:1031F000FC183C9A0C94FC180E94942B3D98A894BF
:10320000000000000000359B0E948E2B1AF48827D6
:103210000C9421190E94942B0C94EE183D9A0000F6
:1032200000003C980E94942B992788273D98A894E9
:103230000000359B0E948E2B52F3349B81E00E944C
:10324000942B000000003D9A089581E008953D9A76
:103250003C9A0E94942B3D980E94942B359B0E948F
:103260008E2B3C980E94942B08958F93F1E0E4EF0D
:103270008F918F93359B0E948E2B3C9A0E94942BAA
:103280000E94EA18882331F40E942719319711F01F
:103290000C94381999270F90089581E008953D9A6C
:1032A0000E94942B3C980E94942B3D980E94942B52
:1032B000359B0E948E2B3C9A0E94942B0E94EA1808
:1032C000089581E00895359B0E948E2B3C9A0E94C0
:1032D000942B0E94EA18089581E00895CF93DF931C
:1032E000C82FD62F88E70E94631980E80E94EA1849
:1032F00080EB8D0F0E94EA1880E80E94EA188C2F5C
:103300008170880F880F880F0E94EA1880E80E9459
:10331000EA188C2F86958F70805F0E94EA18DF91E3
:10332000CF910C942719CF92DF92EF92FF920F93D7
:103330001F93CF93DF93EC01C62ED42E642F8C2DD8
:103340000E946E198E01D8018C91882331F188E793
:103350000E94631980E40E94EA18F12CE12CD80144
:10336000EC910E2E000CFF0BB09794E0EE0FFF1FB8
:103370009A95E1F7EE0DFF1DE755FF4F84910E94EE
:10338000EA18BFEFEB1AFB0AE8E0EE16F10439F792
:103390000E9427190F5F1F4FD6CF61E06D0D8C2D56
:1033A0000E946E198881882311F188E70E946319B1
:1033B00080E40E94EA1808E010E0E8810E2E000C7C
:1033C000FF0BB09784E0EE0FFF1F8A95E1F7E00F47
:1033D000F11FE755FF4F84910E94EA180F5F1F4FBE
:1033E0000031110551F70E9427192196DBCFDF919B
:1033F000CF911F910F91FF90EF90DF90CF900895A4
:1034000040E150E0BC0182EB94E00E94693650E05C
:1034100040E070E060E082EB94E00C949319CF936D
:103420008091CF03E82FF0E094E0F595E7959A9529
:10343000E1F7E054F94FE491E0939C038F70E82F9B
:10344000F0E0E054F94FE491E0939D0310929E0365
:1034500044E050E067E070E08CE993E00E9493194B
:103460008091E7032AE0622F0E949437911111C0E6
:103470000E9494374AE06CE973E0892F90E00E9443
:103480009A3644E050E06EE070E08CE993E00E94F0
:103490009319C091E7038C2F6AE00E949437905DE6
:1034A00090939C0310929D0344E050E06FE070E025
:1034B0008CE993E00E949319CF5FC093E703CF910B
:1034C000089544E050E064E070E083E291E00E94FF
:1034D00093194AE062EB74E080910C0190910D0128
:1034E0000E949A3646E050E070E060E082EB94E0A3
:1034F0000E9493198091FC0346E050E065E070E083
:10350000882381F08EE291E00E94931980919B03C1
:1035100046E050E06BE070E0882339F08AE391E008
:103520000C94931984E391E0EFCF80E491E0F8CF1D
:10353000AB01E2EBF4E020E060E2211111C0DC011C
:103540003C91332369F0308331960196B4E0E23C3C
:10355000FB0799F770E060E082EB94E00C9493191C
:10356000608321E0F1CFCF92DF92EF92FF920F9331
:103570001F93CF93DF93CDB7DEB761970FB6F89463
:10358000DEBF0FBECDBFF82E0E9427050091AE040E
:103590001091AF042091B0043091B104601771070D
:1035A0008207930708F45CC010910C0480E0FF20B0
:1035B00019F08EE3898381E0E1E0F0E0EC0FFD1F7C
:1035C000E80FF11D912F6DE074E0811B292F30E091
:1035D000DB010D900020E9F7AD014E505440241757
:1035E000350708F04CC0235F3B4FD9012C91208355
:1035F0009F5F3196292F280F203140F3198A62E00E
:1036000070E0CE0101960E94981A0E9427053AEFB9
:10361000C32ED12CE12CF12C111106C028EBC22EA7
:103620002BE0D22EE12CF12CC60ED71EE81EF91E7F
:10363000C092AE04D092AF04E092B004F092B10414
:103640006DE074E0FB0101900020E9F7BF016E50CE
:103650007440812F90E001960E94A03780930C0463
:1036600061960FB6F894DEBF0FBECDBFDF91CF914C
:103670001F910F91FF90EF90DF90CF9008951082EF
:10368000B7CF83EC94E00E94AD088091E6038823D5
:1036900051F16EEA76E08DE094E00E94623680910E
:1036A0000104882309F470C08091E803882309F499
:1036B00064C063EA73E089EE93E00E94D93770E05A
:1036C00060E089EE93E00E94981A809101041092C4
:1036D0000C041092AE041092AF041092B004109239
:1036E000B1040C94B31A4091E2035091E30360914A
:1036F00013017091140183EC94E00E940B0F81116F
:1037000011C08091E2039091E303209198033091DE
:1037100099038217930730F401969093E303809303
:10372000E203E1CF83EC94E00E942F128091DB044E
:103730009091DC04A091DD04B091DE0480936301DC
:1037400090936401A0936501B09366018091C304D6
:10375000807779F466E471E08DE094E00E94D037E0
:10376000892B39F01092010483EC94E00E94AD089B
:1037700096CF81E080930104F7CF60EA76E089EE8E
:1037800093E00E9462369BCF609163017091640167
:1037900080916501909166012AE049EE53E00E9414
:1037A000783669E976E089EE93E00E94573687CF54
:1037B00080E18093810081E08093DB03109202041A
:1037C00083EC94E00E94AD080E94411B1092DC0340
:1037D0001092DD031092DE031092DF031092C403F7
:1037E0001092D0030C943C0BCF93DF93EB0140E19C
:1037F00050E0BC0182EB94E00E946936E2EBF4E019
:1038000001900020E9F7319780E29F01225B34406C
:103810002031310514F48193F8CFAE0170E060E0FF
:1038200082EB94E0DF91CF910C9493190F931F9347
:10383000CF93DF938C0181E080930E01C1E0D1E052
:103840000E944505882321F080910E01882329F1EB
:10385000CC2351F0F801808162E070E0811118C042
:103860008AE197E00E94F41B0E943305C82F882349
:1038700061F080910E0181110EC0F80180818D27C9
:103880008083D0930E010E94611A0E94890BD8CFC9
:1038900085E197E0E7CFC0E0F8CFDF91CF911F91AE
:1038A0000F91089570E060E080ED96E00E94F41BB7
:1038B0006CE271E080E090E00E94F5040C94D81B6B
:1038C000CF92DF92EF92FF920F931F93CF9380914D
:1038D000CF03883F19F08E3F09F047C01092DC03F8
:1038E0001092DD031092DE031092DF03C0E0C12CC2
:1038F000D12C76018091E7038C1708F44BC00E940D
:10390000AB14882309F443C0C090DC03D090DD03DE
:10391000E090DE03F090DF0381E0C81AD108E108EF
:10392000F1088091CF03883F11F08E3F59F5C09286
:10393000DC03D092DD03E092DE03F092DF0380919E
:10394000CF03843209F4B8C108F0FBC0843109F414
:10395000A7C108F0C9C0813109F479C108F0A3C03A
:10396000803109F460C1CF5FC5CF8AE090E0A0E06C
:10397000B0E08093DC039093DD03A093DE03B0936B
:10398000DF03B4CF809185038093CF03D8CFC1509C
:10399000C093E703C092DC03D092DD03E092DE0324
:1039A000F092DF038091CF03883F19F08E3F09F03A
:1039B000B6C183E08093120170E060E08EEB96E088
:1039C0000E94F41B8091E7034AE06CE973E090E009
:1039D0000E949A3650E040E070E060E089E291E0B9
:1039E0000E94931950E040E064E070E08CE993E0BD
:1039F0000E949319C091E70350E040E066E070E058
:103A0000C43610F067E070E08BE491E00E949319F7
:103A10008091CF03E82FF0E094E0F595E7959A9533
:103A2000E1F7E054F94FE491E0939C038F70E82FA5
:103A3000F0E0E054F94FE491E0939D0310929E036F
:103A400050E040E06AE070E0C43610F06BE070E0F7
:103A50008CE993E00E9493190E94C70B84E680933F
:103A600015011092E5031092E4031092E003C0FDEB
:103A700063C18FEF809310018091D00381110BC03F
:103A80001092D80380E49FE1909387008093860092
:103A900081E180938100CF911F910F91FF90EF9072
:103AA000DF90CF900895823109F456C0833109F038
:103AB0005ACF0E94AB14882309F455CF8091850317
:103AC00090E0B0E0A0E0880F991FAA1FBB1F4091B3
:103AD000DC035091DD036091DE037091DF03840FFE
:103AE000951FA61FB71F43C0893109F47EC078F423
:103AF000853109F038CF8091DC039091DD03A091EE
:103B0000DE03B091DF030596A11DB11DABC080326D
:103B100009F4D2C0813209F026CF0E94AB14882369
:103B200009F421CF209185038091DC039091DD037E
:103B3000A091DE03B091DF03820F911DA11DB11D85
:103B400016C0823309F459C0A0F58B3209F4C0C005
:103B5000B8F48A3209F007CF8091DC039091DD033D
:103B6000A091DE03B091DF030496A11DB11D8093E7
:103B7000DC039093DD03A093DE03B093DF03F3CE69
:103B8000803359F2813309F0EECE8091DC039091BD
:103B9000DD03A091DE03B091DF030196A11DB11DED
:103BA0008093DC039093DD03A093DE03B093DF03E7
:103BB000B4CF8B34D1F0E0F4833309F495C085336E
:103BC00009F0D1CE8091DC039091DD03A091DE035A
:103BD000B091DF034096A11DB11D8093DC0390934B
:103BE000DD03A093DE03B093DF030E94071444C0FB
:103BF000883F19F08E3F09F0B6CE0E947F148823CB
:103C000009F4B1CE20918503309186038091DC03C5
:103C10009091DD03A091DE03B091DF03820F931F2B
:103C2000A11DB11DA4CF8091DC039091DD03A09173
:103C3000DE03B091DF030296A11DB11D8093DC036A
:103C40009093DD03A093DE03B093DF03D6CF809182
:103C5000DC039091DD03A091DE03B091DF030F96AA
:103C6000A11DB11D8093DC039093DD03A093DE03BF
:103C7000B093DF030E944614882309F474CE809128
:103C8000DC039091DD03A091DE03B091DF0340914E
:103C900085035091860360918703709188031FCF3D
:103CA0008091DC039091DD03A091DE03B091DF03EE
:103CB0000796A11DB11DD6CF8091DC039091DD0345
:103CC000A091DE03B091DF030296A11DB11D4FCF7D
:103CD0008091DC039091DD03A091DE03B091DF03BE
:103CE0000596A11DB11D43CF0E94AB14882309F492
:103CF0003ACE2091850330E0A3E0B0E00E94263761
:103D00000091DC031091DD032091DE033091DF038D
:103D1000DC01CB01800F911FA21FB31F28CF82E0CF
:103D2000809312010E94AB14882309F445CE809140
:103D300085038093CF033DCE109210019DCE0E944B
:103D4000D81B80910204813041F470E060E086EB82
:103D500096E00E94F41B109202040895CF92DF9225
:103D6000EF92FF92CF939091D803963039F4CF9190
:103D7000FF90EF90DF90CF900C944A1710920B01B8
:103D800010920A01E0911201E83080F4F0E0E5536E
:103D9000F14E0C94B437D31EDC1E26213621FF1EB3
:103DA0001E1F411FE71F81E080931201CF91FF90FA
:103DB000EF90DF90CF90089540E050E0BA018AE0A4
:103DC0000E94F3138A30B9F447E050E06FED76E0DB
:103DD00085EC93E00E943736892B69F48AE090E005
:103DE000A0E0B0E08093DC039093DD03A093DE03BA
:103DF000B093DF0302C00E94521C82E0D5CF40E0A6
:103E000050E0BA0188E00E94F3138830A1F448E042
:103E100050E069EE76E085EC93E00E943736892B1E
:103E200051F41092DC031092DD031092DE03109225
:103E3000DF0383E0B9CF0E94521CFBCF40E050E08B
:103E4000BA0189E00E94F3138930B9F449E050E0E7
:103E50006AEF76E085EC93E00E943736892B69F4AF
:103E60008CE090E0A0E0B0E08093DC039093DD0371
:103E7000A093DE03B093DF0302C00E94521C86E0D1
:103E800093CF0E947F14882309F49CC080918503FE
:103E90009091860390935F0180935E010E940714C6
:103EA000882309F48FC08091850390918603A091A7
:103EB0008703B09188038093920390939303A09318
:103EC0009403B093950310927F0320915E0130918B
:103ED0005F012430314009F048C00397A109B109BE
:103EE0008093920390939303A0939403B0939503CC
:103EF0008091DC039091DD03A091DE03B091DF039C
:103F00000196A11DB11D8093DC039093DD03A09366
:103F1000DE03B093DF030E94AB14882399F08091F5
:103F200085038F3431F480919B03882341F082E034
:103F300007C08534D9F580919B038823C1F381E0C4
:103F400080937F038091DC039091DD03A091DE03D9
:103F5000B091DF030196A11DB11D8093DC03909306
:103F6000DD03A093DE03B093DF0380910C019091F9
:103F70000D01803B9440E9F480EA91E090937E0348
:103F800080937D0380ED90E090937C0380937B038E
:103F9000109290031092E00310928C0387E08093BC
:103FA00012011092D80310925D0100CF10927F038E
:103FB000C9CF8CE491E090937E0380937D0386EAE1
:103FC00090E0E2CF83E0809312018FEFFFC4E09195
:103FD0005E01F0915F01FA95E831F10508F0DAC071
:103FE000EC50F04E0C94B4370C20CA20CA20CA20E2
:103FF0000C20CA20CA20CA20CA20CA20CA20CA202F
:10400000CA20CA20CA20CA2013204E203620CA2027
:10401000A520CA20DF201421CF91FF90EF90DF90E0
:10402000CF900C94F314911189C00E947F148823BF
:10403000D9F020910C0130910D0180918503909170
:104040008603880F991F880F991F90937A03809396
:10405000790380ED90E0203B344011F08CE990E052
:10406000909378038093770381E010C70E947F14B8
:10407000882309F49BCE8091850390918603009755
:1040800009F4FDCE880F991F9093840380938303D6
:10409000906890930B0180930A01F1CE91111FC09B
:1040A0000E947F14882391F080918503909186036C
:1040B000880F991F880F991F90937A038093790333
:1040C00080ED90E0909378038093770381E0809374
:1040D000D80380915D018F5F80935D0167CEC091B1
:1040E0005D01C130C1F40E94BE09809179039091B5
:1040F0007A03892B09F05ACE87E0809312018AEA6D
:1041000080939103C09390038BE08093E00310921F
:104110008C0382E0E1CFC23071F410927F030E94E1
:10412000F3148091E003811141CE87E08093120166
:104130001092D8033BCEC33009F038CECF91FF9018
:10414000EF90DF90CF900C94BE090E947F148823DB
:10415000F9F08091850390918603880F991F880F4D
:10416000991F90937A03809379038091DC03909157
:10417000DD03A091DE03B091DF030297A109B1092D
:104180008093DC039093DD03A093DE03B093DF0301
:104190000E94BE098091DC039091DD03A091DE03B3
:1041A000B091DF0340919203509193036091940387
:1041B00070919503840F951FA61FB71F55CE0E94BF
:1041C0000714882309F4F2CD8091880390E0880FCA
:1041D000991F992720918703221F2227221F822BB4
:1041E0000A9690938603809385036091850370916E
:1041F000860380918703909188030E9435377093DE
:104200008603609385036115710509F438CE7093B8
:1042100084036093830320E82093CF037068709336
:104220000B0160930A012BCE0E947F14882309F4AE
:10423000BDCD80918503909186038C32914021F40D
:1042400088E0809311011BCE82E0FBCF0E94AB146B
:10425000882351F0809185038093CF031092E0036F
:1042600010928C0383E062CF8FEFF6CF8091CF0363
:10427000803309F424C408F0B5C0893109F4A9C316
:1042800008F076C0823109F4E8C210F5803109F4F3
:1042900073C1813109F4E3C140E169EE73E08091BB
:1042A000DC039091DD030E949A3662E070E089EEB3
:1042B00093E00E94981AF8940E9445058823E1F340
:1042C0007894CF91FF90EF90DF90CF900C949F1E49
:1042D000843109F418C308F4F1C28531E9F691116B
:1042E00069C30E940F1A1092E0030E947F14C12C30
:1042F000D12C7601882339F0809185039091860333
:104300000E94D70B6C010E947F14882341F080919A
:1043100085039091860390938103809380030E948C
:10432000AB14882321F080918503809305010E94BE
:104330004614882399F08091850390918603A0917B
:104340008703B09188030196A11DB11D809392034C
:1043500090939303A0939403B093950386E0809386
:10436000D80340E6D42AD0920B01C0920A011ECD98
:10437000843209F45DC3C0F4813209F4A0C38232EF
:1043800009F43BCD803209F087CF0E947F14882347
:1043900009F40CCD8091850390918603009709F470
:1043A0007CC310926E010DC38A3209F45FC38B3255
:1043B00009F477C3853209F06FCF80916C01909139
:1043C0006D01019790936D0180936C01892B09F425
:1043D00014CD8091680190916901A0916A01B0911A
:1043E0006B0100CD803811F40C943F2A08F056C0C0
:1043F000833309F478C3E0F4813309F45EC3823374
:1044000009F04ACF0E947F14882309F4F6CC20914A
:104410008503309186038091DC039091DD03A091A8
:10442000DE03B091DF03820F931FA11DB11DDACC13
:104430008B3409F473C38A3509F4A4C5853309F0B4
:104440002BCF8091DC039091DD03A091DE03B0912E
:10445000DF034096A11DB11D8093DC039093DD0323
:10446000A093DE03B093DF030E940714882309F4AE
:10447000C4CC8091DC039091DD03A091DE03B09168
:10448000DF0340918503509186036091870370910B
:104490008803840F951FA61FB71FA4CC8C3F09F477
:1044A000BDC508F054C08A3F09F41CC608F0C2C557
:1044B000883F09F0F1CE9111CBC00E940F1A88EE0F
:1044C00093E090938103809380030E947F1488235C
:1044D00079F080918503909186030196B0E0A0E089
:1044E0008093920390939303A0939403B0939503C6
:1044F0008091CF03883F09F055C5109267018091E4
:104500001001809580931001811149C581E090E1EF
:1045100090937A03809379038FE392E090937803EA
:10452000809377038CEA90E09093730180937201FB
:1045300082EE90E0909371018093700185EE90E09F
:1045400090937E0380937D0389EC91E073C08E3F4E
:1045500009F4B1CF08F435C58091D4039091D50307
:10456000A091D603B091D7030097A105B10509F436
:10457000A8CE2AE030EA15C791116AC00E940F1A2E
:104580000E947F14882341F08091850390918603D7
:1045900090938103809380030E947F14882379F095
:1045A00080918503909186030196B0E0A0E080930E
:1045B000920390939303A0939403B09395030E9466
:1045C000AB148823E9F08091850381113EC08FE709
:1045D0009FE190937A03809379038091DC0390911B
:1045E000DD03A091DE03B091DF030197A109B109BA
:1045F0008093DC039093DD03A093DE03B093DF038D
:104600008BE692E090937803809377038FEB90E0B2
:10461000909373018093720182ED90E09093710109
:104620008093700184EF90E090937E0380937D03EC
:1046300089EE91E090937C0380937B0381E08093EB
:10464000D80388E080930501B1CB87E99CE0C1CF16
:10465000CF91FF90EF90DF90CF900C948F17911136
:10466000F7CF0E940F1A80919B03882309F4ADC0F5
:104670008091E103882309F4A8C08091DC03909124
:10468000DD03A091DE03B091DF030A96A11DB11DE9
:104690008093DC039093DD03A093DE03B093DF03EC
:1046A00080910C0190910D018E344CE0940709F437
:1046B0007FC008F042C0803B44E0940709F452C038
:1046C0008036994009F467C00E947F14882341F026
:1046D000809185039091860390937A038093790368
:1046E0000E94AB14882321F08091850380930501FB
:1046F0000E947F14882341F0809185039091860366
:1047000090938103809380030E944614882309F4C8
:10471000ABCC8091850390918603A0918703B091E3
:1047200088030196A11DB11D80939203909393037A
:10473000A0939403B093950397CC80314EE09407F7
:10474000B9F18A309F4009F0BFCF86EA90E090939C
:104750007C0380937B03909378038093770383E5B6
:1047600090E00CC08AE992E090937C0380937B03F5
:1047700090937803809377038DE491E090937E0388
:1047800080937D03909371018093700190937301E6
:104790008093720199CF8EE491E090937C03809393
:1047A0007B03909378038093770387EA90E0E6CFCA
:1047B0008EEB90E090937C0380937B03909378033F
:1047C000809377038FE590E0D9CF0E947F148823F0
:1047D00051F080918503909186030E94D70B9093AE
:1047E0007803809377030E947F14882351F080918F
:1047F0008503909186030E94D70B90937301809359
:1048000072010E947F14882351F08091850390915A
:1048100086030E94D70B90937101809370010E94D0
:104820007F14882351F080918503909186030E9424
:10483000D70B90937E0380937D030E947F1488237F
:1048400009F442CF80918503909186030E94D70B93
:1048500090937C0380937B0337CF91111CC00E94FF
:104860007F14882351F080918503909186030E94E4
:10487000D70B90937803809377030E947F1488234B
:1048800009F4F2CB809185039091860390937A038B
:1048900080937903E9CB8091790390917A039C010D
:1048A0002150310930937A0320937903892B09F43D
:1048B000A4CA809177039091780320C091110AC017
:1048C0000E94AB14882321F08091850380936F01AF
:1048D00084E0DCC280916F019FEF980F90936F018D
:1048E000882309F48ACA0E947F14882309F45ECAC7
:1048F00080918503909186030E94D70B90930B01C2
:1049000080930A0153CA911149C00E947F148823E1
:1049100051F080918503909186030E94D70B90936C
:104920007E0380937D030E947F14882351F0809141
:104930008503909186030E94D70B90937C0380930C
:104940007B030E94AB14882321F080918503809320
:1049500005010E947F14882341F080918503909186
:10496000860390938103809380030E9446148823DA
:1049700009F4AECF8091850390918603A0918703BF
:10498000B09188030196A11DB11D8093920390936D
:104990009303A0939403B09395039ACF943019F0A6
:1049A000953059F003CACF91FF90EF90DF90CF90F0
:1049B0000C946317953009F0DAC9809180039091C7
:1049C0008103909384038093830380E88093CF03D3
:1049D000EDC9992351F0943009F0E8C9CF91FF90C7
:1049E000EF90DF90CF900C94D3140E9407140E9494
:1049F0007F14882341F080918503909186039093E2
:104A00008103809380038091DC039091DD03A0916A
:104A1000DE03B091DF038A5A9F4FAF4FBF4F8093A1
:104A2000DC039093DD03A093DE03B093DF0350CF4C
:104A30000E947F14882309F4E0C980918503909136
:104A4000860390936D0180936C018091DC039091BB
:104A5000DD03A091DE03B091DF03809368019093A2
:104A60006901A0936A01B0936B01C7C98091DC030F
:104A70009091DD03A091DE03B091DF030496A11DA8
:104A8000B11D8093DC039093DD03A093DE03B0930C
:104A9000DF0380919A038111B0C981E080936E0198
:104AA00094CF8091DC039091DD03A091DE03B0915F
:104AB000DF030596A11DB11D95C90E94AB140E948C
:104AC000AB14882309F499C9209185038091DC03F4
:104AD0009091DD03A091DE03B091DF03820F911D61
:104AE000A11DB11D7FC90E94AB14882309F485C99B
:104AF0002091850330E0A3E0B0E00E942637C0900B
:104B0000DC03D090DD03E090DE03F090DF03DC01F6
:104B1000CB018C0D9D1DAE1DBF1D64C9913009F4E4
:104B200069C140F1943009F03BCF9091E0039923A3
:104B300009F4FDC180918C039A3009F06FC1909106
:104B40000401992309F4ABC120916101222309F4E6
:104B500060C120917B0330917C0330930B01209343
:104B60000A018F5F80938C03981374C189E080934E
:104B7000E0036EC10E940F1A0E940714882399F067
:104B80008091850390918603A0918703B09188035B
:104B90000C97A109B1098093920390939303A0937A
:104BA0009403B09395030E947F14882341F0809171
:104BB0008503909186039093810380938003809175
:104BC0009B03811191C00E947F14882351F0809132
:104BD0008503909186030E94D70B9093780380936E
:104BE00077030E947F14882341F080918503909180
:104BF000860390937A03809379030E947F1488231D
:104C000051F080918503909186030E94D70B909379
:104C10007E0380937D030E947F14882351F080914E
:104C20008503909186030E94D70B90937C03809319
:104C30007B030E94AB148823C9F080918503282F41
:104C40002F702093010190E0F4E095958795FA95F7
:104C5000E1F7982F80930001211103C080E1809338
:104C60000101911103C080E1809300010E94AB1407
:104C7000882309F4F9C920918503822F90E0AC01C3
:104C8000E5E055954795EA95E1F74170409361015C
:104C9000322F3295369536953370442309F4A7C0E8
:104CA00040910101349F302D112430930401AC0157
:104CB000559547955595479541704093020173E08E
:104CC000959587957A95E1F783709091010141114F
:104CD00002C090910001899F802D112480930301CF
:104CE000217020936001C0C920910C0130910D0109
:104CF000C90160EB74E00E94A03748E853E1649F6B
:104D0000C001659F900D749F900D112490937A03BC
:104D1000809379038091DC039091DD03A091DE0301
:104D2000B091DF030896A11DB11D8093DC03909321
:104D3000DD03A093DE03B093DF032E348CE038074D
:104D4000E1F1A8F4203B84E0380731F12036394006
:104D500009F06FCF88E690E090937C0380937B030B
:104D6000909378038093770380ED90E021C0203109
:104D70008EE0380779F12A303F4009F05ACF81E4BC
:104D800090E090937C0380937B03909378038093CF
:104D9000770382E890E00CC080ED90E090937C0374
:104DA00080937B03909378038093770381EA91E06B
:104DB00090937E0380937D033CCF81E590E09093B8
:104DC0007C0380937B03909378038093770380EA3E
:104DD00090E0EECF86E490E090937C0380937B0399
:104DE00090937803809377038CE890E0E1CF409133
:104DF000000158CF8091790390917A039C01215052
:104E0000310930937A0320937903892B09F051CD2E
:104E10005FCD20917D0330917E039FCE913009F0CC
:104E200041C0909103019923E9F1209102012223CD
:104E300089F120917B0330917C0330930B01209307
:104E40000A018F5F80938C03981304C01092E003D3
:104E500010928C038091920390919303A0919403FC
:104E6000B0919503892B8A2B8B2B11F00C94D61EB5
:104E70008091E00381110C94D61E80918003909163
:104E80008103909384038093830385E08093D80308
:104E90000C94D61E20917D0330917E03CECF99E0F5
:104EA0009093E0032091910330E09091E003692F0B
:104EB00070E040916001442381F1AB0142505109FF
:104EC00002C0359527954A95E2F7422F417020FFA1
:104ED00029C020917B0330917C0330930B012093F8
:104EE0000A018F5F80938C0320910101411102C060
:104EF00020910001821305C091509093E00310921D
:104F00008C038091E003813009F0A4CF80910301EC
:104F10008111A0CF1092E0039DCF49E050E0461BE5
:104F2000570BCECF20917D0330917E03D6CF809159
:104F3000920390919303A0919403B0919503892BD0
:104F40008A2B8B2B09F494CF0E94AB14882309F48D
:104F50003CC88091920390919303A0919403B091E7
:104F600095030197A109B10980939203909393034C
:104F7000A0939403B093950380918503809391034C
:104F80008AE0F5CD8091DC039091DD03A091DE03F2
:104F9000B091DF030996A11DB11D0C94F21E81E0B2
:104FA00092E0B6CA0E94AB14882309F429CB809101
:104FB0008503811103C080E89FE10BCB88E99CE069
:104FC00008CB913061F040F0943009F407CD953072
:104FD00009F44AC80C94D61E1092620145C880910B
:104FE000E003811114C080916201E82FF0E0ED5FD1
:104FF000F84FE491E09391038F5F809362018A30D0
:1050000009F466CC89E08093E00310928C03CF9181
:10501000FF90EF90DF90CF900C947E09943009F4CC
:10502000DDCC953009F454CC91110C94D61E10921D
:1050300062014ECC91110CCB88EE93E090938103EA
:10504000809380038BE692E09093780380937703BC
:105050008FEB90E0909373018093720182ED90E06A
:10506000909371018093700184EF90E090937E03A0
:1050700080937D0389EE91E090937C0380937B0382
:1050800081E08093D803109282031092DC03109287
:10509000DD031092DE031092DF038091C4038111BF
:1050A00007C080E89FE190937A0380937903C9CA8F
:1050B00088E99CE090937A0380937903809163015F
:1050C00090916401A0916501B09166010596A11DC2
:1050D000B11D8093920390939303A0939403B09394
:1050E0009503AFCA9C3010F00C94D61EE92FF0E067
:1050F000E458F74D0C94B4378828D61E8828BB286E
:10510000D629122AD61E07297A29C129DB289D29EA
:105110008091E003882339F0CF91FF90EF90DF90EA
:10512000CF900C94A8150E94AB14809185038093B6
:1051300091039BE09093E0031092820310929003FE
:105140008631A9F48091D4039091D503A091D60320
:10515000B091D7030197A109B1098093D40390932B
:10516000D503A093D603B093D7030C94D61E109208
:10517000E00383E08BCE8091E0038111CDCF80915D
:10518000D4039091D503A091D603B091D70326E123
:10519000181619061A061B0604F181E090E0A0E03B
:1051A000B0E08093D4039093D503A093D603B0933B
:1051B000D7038AE06BCE8091E0038111ADCF80915F
:1051C000D4039091D503A091D603B091D7031816BC
:1051D00019061A061B065CF424E2209391032BE0C7
:1051E0002093E0031092820310929003B3CF89E0E2
:1051F00090E0A0E0B0E08093D4039093D503A09317
:10520000D603B093D7031092900387E03FCE8091EE
:10521000E003811181CF8091D4039091D503A091B7
:10522000D603B091D703181619061A061B060CF000
:105230005FC00E94AB1480918503809391039BE033
:105240009093E00310928203109290034091D40354
:105250005091D5036091D6037091D7034530510525
:1052600061057105D9F490E0982F8827B0E0A0E09F
:105270008093920390939303A0939403B093950328
:1052800041505109610971094093D4035093D503EA
:105290006093D6037093D7030C94D61E4430510507
:1052A0006105710549F42091920330919303820FB7
:1052B000932F911D0196DACF433051056105710599
:1052C00059F490E0982F882720919203309193030E
:1052D000281B390BC901CACF423051056105710540
:1052E00079F62091920330919303281B3109F2CF74
:1052F00088E0CCCD8091E00381110ECF0E94AB14E9
:1053000090918503909391038BE08093E00310923A
:1053100082031092900391110C94D61E41E050E04C
:1053200060E070E04093D4035093D5036093D603BC
:105330007093D7031092E003A9CD8091E00381110F
:10534000EBCE8091D4039091D503A091D603B09178
:10535000D703181619061A061B061CF4109291039F
:105360003ECF84E690E0A0E0B0E08093D403909339
:10537000D503A093D603B093D7031092900389E08E
:1053800085CD8091D4039091D503A091D603B0919F
:10539000D703181619061A061B060CF099CA20ED39
:1053A00030E030930B0120930A01D4CE8091E003CA
:1053B0008111B2CE0E94AB14882331F18091850314
:1053C000809391038091920390919303A091940311
:1053D000B09195030197A109B1098093920390932D
:1053E0009303A0939403B093950310928203892BA7
:1053F0008A2B8B2B19F481E0809390038BE08093B0
:10540000E00310928C0388CE8FEF90E0A0E0B0E034
:105410008093D4039093D503A093D603B093D7037E
:105420000C94FD1E8091D4039091D503A091D603D6
:10543000B091D703181619061A061B060CF4AFCF45
:1054400084E690E0A0E0B0E08093D4039093D5038D
:10545000A093D603B093D70382E08093D8038091C2
:105460009A0381110C94D61E81E08093FB038CE09B
:1054700097E00E94001A10926E010C94D61E809143
:105480008303909184030097F9F0811520E292073D
:1054900090F02FEF3FE130930B0120930A018F5FD3
:1054A0009F41909384038093830380910A0190919C
:1054B0000B01906823CA90930B0180930A0110920C
:1054C000840310928303F1CF80916E018823F9F059
:1054D0008091D4039091D503A091D603B091D703C6
:1054E00021E030E80097A105B10509F05ACF82E02C
:1054F000809312018FEF90E0A0E0B0E08093D4039E
:105500009093D503A093D603B093D703ADCF82E099
:10551000809312018091D30381110C94E51F0C94A8
:10552000D61ECF932091DC033091DD034091DE0342
:105530005091DF03A4E6B0E00E94F93620916301A8
:105540003091640140916501509166010E940437D9
:10555000822F20935C0190911501943611F41092E2
:10556000150190911501981710F0911119C0C22FD3
:105570008A30C0F480E280939C0380E3820F8093A2
:105580009D0385E280939E0310929F0350E040E0CC
:1055900068E070E08CE993E00E949319C0931501D4
:1055A000CF910895843650F46AE00E949437805D6C
:1055B00080939C03905D90939D03E3CF81E3809360
:1055C0009C0380E380939D0380939E0385E28093F8
:1055D0009F031092A003DACF0F931F93CF93DF9313
:1055E0000E942705009158011091590120915A01FC
:1055F00030915B01601B710B820B930B693E734012
:105600008105910560F10E94270560935801709310
:10561000590180935A0190935B012091E4033091EA
:10562000E503CAE0D0E0C901BE010E94A03700979F
:10563000D9F04AE06CE973E00E949A3650E040E00D
:105640006FE070E08CE993E00E9493198091E4038D
:105650009091E50301969093E5038093E403DF9135
:10566000CF911F910F910895E4E6F0E0C901BF01C9
:105670000E94A037009799F0BE010E94A037CB018D
:105680004AE06CE973E00E949A3680E380939D03C0
:1056900010929E0350E040E06EE070E0D3CFC9016D
:1056A00068EE73E00E94A0370097A9F0BF010E9446
:1056B000A037CB014AE06CE973E00E949A3680E3A0
:1056C00080939D0380939E0310929F0350E040E0DF
:1056D0006DE070E0B7CF50E040E06DE070E080E555
:1056E00091E0B2CFCF93C82F88E70E94631980E87A
:1056F0000E94EA188C2F0E94EA18CF910C94271967
:105700003C983D984498459888279927349B08955C
:10571000359B089581E0089581E00895359B0C94B0
:105720008E2BA8940895089591E09A95F1F7089525
:1057300008951F920F920FB60F9211242F933F934B
:105740004F935F936F937F938F939F93AF93BF9389
:10575000EF93FF93E091D103F091D203309709F0DA
:105760000995FF91EF91BF91AF919F918F917F919B
:105770006F915F914F913F912F910F900FBE0F90BE
:105780001F901895E3ECF4E010821182E3E2F5E05B
:10579000158210924A0710924B0789E180936D079A
:1057A000109270078DE191E091838083E3EEF4E045
:1057B0001082118210A211A20895789484B582609B
:1057C00084BD84B5816084BD85B5826085BD85B5A5
:1057D000816085BD80916E00816080936E00109223
:1057E000810080918100826080938100809181009E
:1057F000816080938100809180008160809380002F
:105800008091B10084608093B1008091B00081608C
:105810008093B00080917A00846080937A008091B8
:105820007A00826080937A0080917A008160809310
:105830007A0080917A00806880937A001092C1008B
:10584000439A429A419A409A5E9A5F9A84E00E94F3
:1058500031040E94802B8EEA0E94722B88EA0E94FB
:10586000722B8FE30E94722B8DE80E94722B84E1D1
:105870000E94722B81EA0E94722B88EC0E94722B8C
:105880008AED0E94722B82E10E94722B81E80E94B5
:10589000722B87E40E94722B80E20E94722B80E0C0
:1058A0000E94722BC0E06C2F80E00E946E19CF5FC7
:1058B000C830C9F78EEA0E94722BC0E06C2F80E0DE
:1058C0000E946E19D0E088E70E94631980E40E946C
:1058D000EA1880E00E94EA180E942719DF5FD0389A
:1058E00091F7CF5FC83051F78FEA0E94722BC1E762
:1058F000EC2EC7E0FC2E04E0D0E4DD2E12E083E0C5
:10590000C82E9AE0792E1092700710926D07F092CF
:105910006B07E0926A0700936C070E942705EB0172
:1059200080916C070E94310461E080916C070E94B5
:10593000A2042A9A229A239A259AD0926E0780E48A
:105940000E940C09BAE0BB2E8FEF0E940009BA94A6
:10595000B110FACF20E030E0A90160E08AE697E0DC
:105960000E942909813059F00E9427056C1B7D0B8C
:10597000613D774078F381E080936D074DC02AEA5E
:1059800031E040E050E068E08AE697E00E942909B3
:10599000853051F581E08093700780917007812CEC
:1059A000912CA12CF0E4BF2E823019F0812C912C87
:1059B000540120E030E0A90167E38AE697E00E9405
:1059C0002909A501940169E28AE697E00E94290964
:1059D000882399F10E9427056C1B7D0B613D774060
:1059E00040F370926D0718C0A4E0BA2E0E9405091A
:1059F00080936F07BA94B110F9CF8A3A19F41093D3
:105A00007007CBCF0E9427056C1B7D0B613D774053
:105A100008F4B5CF10936D078AE697E00E9421093C
:105A200070E060E088E297E00E94F41B62E370E0BF
:105A300080E090E00E94F50466CF8091700782308C
:105A4000C9F420E030E0A9016AE38AE697E00E9409
:105A50002909882311F088E08FCF0E940509807CF6
:105A6000803C11F4C09270070E9405090E9405094C
:105A70000E9405098AE697E00E94210910936E07AB
:105A80008AE497E00E94AD0881E00E94F005882337
:105A900009F4A7C063E275E08AE497E00E944E0D26
:105AA000882309F4BDCF80914A07807709F4B8CFE5
:105AB0008AE497E090938A03809389030E9493106D
:105AC000219A81E08093DB0310928B03299870E088
:105AD00060E080E297E00E94F41B64EF71E080E0F8
